:020000040800F2
:100000000080012045190008051800080D18000897
:10001000151800081D180008251800080000000029
:100020000000000000000000000000002D18000883
:100030003B18000800000000491800085718000885
:1000400095190008951900089519000895190008D8
:1000500095190008951900089519000895190008C8
:1000600095190008951900089519000895190008B8
:1000700095190008951900089519000895190008A8
:100080009519000895190008951900089519000898
:1000900095190008951900089519000863180008BB
:1000A0009519000895190008951900089519000878
:1000B0009519000895190008951900089519000868
:1000C0009519000895190008951900089519000858
:1000D0009519000895190008951900089519000848
:1000E0008518000895190008951900089519000849
:1000F0009519000895190008951900089519000828
:100100009519000895190008951900089519000817
:100110009519000895190008951900089519000807
:1001200095190008951900089519000895190008F7
:1001300095190008951900089519000895190008E7
:1001400095190008951900089519000895190008D7
:1001500095190008951900089519000895190008C7
:1001600095190008951900089519000895190008B7
:100170009519000895190008000000000000000013
:0801800095190008951900080B
:1001900010B5054C237833B9044B13B10448AFF3C1
:1001A00000800123237010BD00010020000000002A
:1001B000106C000808B5034B1BB103490348AFF3AB
:1001C000008008BD0000000004010020106C000841
:1001D00001F0FF01102A2BDB10F0070F08D010F8F8
:1001E000013B013A8B422DD010F0070F42B3F6D1FC
:1001F000F0B441EA012141EA014122F007047FF015
:1002000000070023F0E80256083C85EA010586EA6B
:10021000010685FA47F5A3FA87F586FA47F6A5FAA7
:1002200087F68EB9EED1F0BC01F0FF0102F00702B3
:1002300032B110F8013B013A83EA010313B1F8D15E
:100240000020704701387047002D06BF354603383F
:10025000073815F0010F07D1013015F4807F02BF78
:10026000013015F4C03F0130F0BC0138704700BFC9
:1002700081F0004102E000BF83F0004330B54FEA57
:1002800041044FEA430594EA050F08BF90EA020FC4
:100290001FBF54EA000C55EA020C7FEA645C7FEA57
:1002A000655C00F0E2804FEA5454D4EB5555B8BF7A
:1002B0006D420CDD2C4480EA020281EA030382EAEB
:1002C000000083EA010180EA020281EA0303362D7D
:1002D00088BF30BD11F0004F4FEA01314FF4801C50
:1002E0004CEA113102D0404261EB410113F0004F62
:1002F0004FEA03334CEA133302D0524263EB430319
:1003000094EA050F00F0A780A4F10104D5F1200EB6
:100310000DDB02FA0EFC22FA05F2801841F1000111
:1003200003FA0EF2801843FA05F359410EE0A5F1E5
:1003300020050EF1200E012A03FA0EFC28BF4CF016
:10034000020C43FA05F3C01851EBE37101F00045CC
:1003500007D54FF0000EDCF1000C7EEB00006EEBD9
:100360000101B1F5801F1BD3B1F5001F0CD3490863
:100370005FEA30004FEA3C0C04F101044FEA4452BA
:1003800012F5800F80F09A80BCF1004F08BF5FEA41
:10039000500C50F1000041EB045141EA050130BD21
:1003A0005FEA4C0C404141EB0101013C28BFB1F533
:1003B000801FE9D291F0000F04BF01460020B1FA7E
:1003C00081F308BF2033A3F10B03B3F120020CDA51
:1003D0000C3208DD02F1140CC2F10C0201FA0CF02F
:1003E00021FA02F10CE002F11402D8BFC2F1200C94
:1003F00001FA02F120FA0CFCDCBF41EA0C0190404A
:10040000E41AA2BF01EB0451294330BD6FEA040492
:100410001F3C1CDA0C340EDC04F11404C4F120027D
:1004200020FA04F001FA02F340EA030021FA04F38F
:1004300045EA030130BDC4F10C04C4F1200220FAE6
:1004400002F001FA04F340EA0300294630BD21FA24
:1004500004F0294630BD94F0000F83F4801306BFEA
:1004600081F480110134013D4EE77FEA645C18BFDE
:100470007FEA655C29D094EA050F08BF90EA020F75
:1004800005D054EA000C04BF1946104630BD91EA6D
:10049000030F1EBF0021002030BD5FEA545C05D170
:1004A0004000494128BF41F0004130BD14F58004AF
:1004B0003CBF01F5801130BD01F0004545F0FE4123
:1004C00041F470014FF0000030BD7FEA645C1ABF58
:1004D000194610467FEA655C1CBF0B46024650EA8F
:1004E000013406BF52EA033591EA030F41F40021BB
:1004F00030BD00BF90F0000F04BF0021704730B541
:100500004FF4806404F132044FF000054FF0000115
:1005100050E700BF90F0000F04BF0021704730B5D6
:100520004FF4806404F1320410F0004548BF4042AB
:100530004FF000013EE700BF42004FEAE2014FEA00
:1005400031014FEA02701FBF12F07F4393F07F4FDB
:1005500081F06051704732F07F4208BF704793F0DE
:100560007F4F04BF41F40021704730B54FF46074F1
:1005700001F0004521F000411CE700BF50EA0102F4
:1005800008BF704730B54FF000050AE050EA01029D
:1005900008BF704730B511F0004502D5404261EB0D
:1005A00041014FF4806404F132045FEA915C3FF44E
:1005B000D8AE4FF003025FEADC0C18BF03325FEAEB
:1005C000DC0C18BF033202EBDC02C2F1200300FA9C
:1005D00003FC20FA02F001FA03FE40EA0E0021FAC1
:1005E00002F11444BDE600BF4FEA410212F50012C9
:1005F00015D211D56FF47873B3EB625212D94FEA6A
:10060000C12343F0004343EA505311F0004F23FA53
:1006100002F018BF404270474FF00000704750EAA8
:10062000013005D111F0004008BF6FF00040704765
:100630004FF00000704700BF53B94AB9002908BF06
:1006400000281CBF4FF0FF314FF0FF3000F088B999
:10065000ADF1080C6DE904CE00F006F8DDF804E019
:10066000DDE9022304B070472DE9F047089D8E466E
:1006700004468846002B4AD18A42174662D9B2FA0C
:1006800082F64EB1C6F1200301FA06F820FA03F310
:10069000B74043EA0808B4404FEA174E1FFA87FCF8
:1006A000B8FBFEF1230C0EFB118843EA084301FB63
:1006B0000CF29A4209D9FB1801F1FF3080F0EA8070
:1006C0009A4240F2E78002393B449A1AA3B2B2FB45
:1006D000FEF00EFB102243EA024300FB0CFC9C459B
:1006E00009D9FB1800F1FF3280F0D6809C4540F21A
:1006F000D3803B44023840EA0140A3EB0C030021C5
:100700001DB1F3400022C5E90032BDE8F0878B42FD
:1007100005D90DB1C5E9000100210846F5E7B3FA96
:1007200083F1002946D1734502D3824200F205814C
:10073000841A6EEB030201209046002DE5D0C5E936
:100740000048E2E7002A00F09080B2FA82F6002E1C
:1007500040F0A4808A1A030C4FEA174E80B2BCB254
:100760000121B2FBFEFC0EFB1C2243EA024304FB08
:100770000CF29A4207D9FB180CF1FF3802D29A42C8
:1007800000F2E080C4469B1AB3FBFEF20EFB12336C
:1007900040EA034302FB04F49C4207D9FB1802F130
:1007A000FF3002D29C4200F2CA8002461B1B42EA82
:1007B0000C40A5E7C1F120068B4022FA06F71F4343
:1007C0000EFA01F420FA06F32EFA06FE4FEA174954
:1007D000234300FA01F81FFA87FCBEFBF9F01C0C5A
:1007E00009FB10EE44EA0E4400FB0CFEA64502FA9B
:1007F00001F209D93C1900F1FF3A80F09C80A6452E
:1008000040F2998002383C44A4EB0E041FFA83FEA8
:10081000B4FBF9F309FB13444EEA044403FB0CFC5C
:10082000A44508D93C1903F1FF3E80F08280A4451D
:100830007FD9023B3C4443EA0040A4EB0C04A0FBFC
:1008400002EC64457346E14662D35FD05DB1B8EB1C
:10085000030264EB090404FA06F622FA01F31E43CC
:10086000CC40C5E9006400214FE7B1FBF2FC010C6C
:1008700041EA0E4180B240EA01423B4638463C46DE
:10088000B846BE462026B1FBF7F1A2EB080241EACA
:100890000C4166E7014618E710462CE7C6F1200236
:1008A0002EFA02F3B740B14020FA02F24FEA174E97
:1008B0000A43B3FBFEF8BCB20EFB1833110C41EA3D
:1008C000034108FB04F9B04089454FEA104380B268
:1008D0003ED9791808F1FF3C01D289451FD8A1EB18
:1008E0000901B1FBFEF909FB04F80EFB191192B2E4
:1008F00042EA0142424529D2BA1809F1FF31C4D275
:100900004245C2D2A9F102013A44BEE7F0459DD268
:10091000BEEB02036CEB070C0138E14696E7A7EB50
:1009200009094944A8F1020CB1FBFEF909FB04F8DE
:10093000DBE773467FE7504666E70846FDE63B4443
:10094000023A33E7ACF1020C3B441CE749469CE712
:10095000A1EB0901C446B1FBFEF909FB04F8C4E7A9
:10096000704700BF80B586B002AF01F048FA00F0D2
:1009700081F800F08BFA00F0DFF800F055F900F094
:1009800093F900F0B7F900F0F3F900F021FA00F064
:100990004FFA00F009F94FF47A7330222D492E48AE
:1009A00004F03FFC4FF47A732F222C492A4804F0BC
:1009B00038FC01F041F94FF47A7331222849264876
:1009C00004F02FFC01F054F9F0EE407A254BC3ED12
:1009D000007A244BD3ED007AFDEEE77A17EE903AD9
:1009E000FB60204B93ED007AFB6807EE903AF8EE3F
:1009F000E77A77EE677AC7ED027AD7ED027A9FED54
:100A00001A7A67EE877A17EE900AFFF795FD02468D
:100A10000B4643EC102B06F0C1F853EC102B10469C
:100A20001946FFF7E1FD03467B607B680093FB6896
:100A30000E4A64210E4805F0FDFB4FF47A736422E0
:100A40000B49054804F0EDFB4FF47A7001F04CFAC5
:100A500000BFB7E700000020A40200203000002003
:100A600060000020980800200000C842286C0008A0
:100A70009C08002080B596B000AF07F11403442213
:100A80000021184605F00CFC3B4600221A605A6013
:100A90009A60DA601A614FF4007002F0E3FE0346D8
:100AA000002B01D000F08CFB02F0BEFE214BD3F8EE
:100AB0009030204A23F01803C2F8903014237B6151
:100AC0000123FB610123FB6200233B6360237B6303
:100AD0000223FB6301233B6401237B642823BB6463
:100AE0000723FB6402233B6502237B6507F11403A4
:100AF000184602F0D9FF0346002B01D000F060FB3E
:100B00000F233B6003237B600023BB600023FB605B
:100B100000233B613B460421184603F0A1FB03463A
:100B2000002B01D000F04CFB04F0A8F800BF5837B0
:100B3000BD4680BD0010024080B500AF184B194A79
:100B40001A60174B01221A71154B00229A60144B40
:100B50000222DA60124B00221A61114B00225A6104
:100B60000F4B4FF480729A610D4B0022DA610C4BEF
:100B700004221A620A4B00225A62094B01229A622D
:100B8000074B0022DA62064B00221A63044801F088
:100B9000E1FA0346002B01D000F012FB00BF80BD3C
:100BA0001C0100202060014080B500AF1B4B1C4A97
:100BB0001A601A4B1B4A5A60184B00229A60174B56
:100BC0000122DA60154B00221A61144B00225A618F
:100BD000124B00229A61114B0022DA610F4B002266
:100BE0001A620E4801F09BFE0346002B01D000F074
:100BF000E7FA0021094802F04DFC0346002B01D022
:100C000000F0DEFA0021054802F08FFC0346002BBD
:100C100001D000F0D5FA00BF80BD00BF5401002014
:100C200000540040E49CD11080B500AF1B4B1C4A1F
:100C30001A601A4B1B4A5A60184B00229A60174BD5
:100C40000122DA60154B00221A61144B00225A610E
:100C5000124B00229A61114B0022DA610F4B0022E5
:100C60001A620E4801F05BFE0346002B01D000F033
:100C7000A7FA0021094802F00DFC0346002B01D021
:100C800000F09EFA0021054802F04FFC0346002BBD
:100C900001D000F095FA00BF80BD00BFA801002080
:100CA00000580040E49CD11080B500AF0F4B104AB3
:100CB0001A600E4B02225A600C4B04229A600B4BB6
:100CC0001022DA60094B17221A61084B00225A6180
:100CD000064B00229A61054802F02AFE0346002BCB
:100CE00001D000F06DFA00BF80BD00BFFC01002004
:100CF000001000A080B500AF1B4B1C4A1A601A4BB5
:100D00004FF482725A60184B00229A60164B4FF4CF
:100D10004072DA60144B00221A61134B00225A61B0
:100D2000114B4FF400729A610F4B0022DA610E4BA7
:100D300000221A620C4B00225A620B4B00229A626C
:100D4000094B0722DA62084B00221A63064B08227D
:100D50005A63054804F074F90346002B01D000F0F3
:100D60002FFA00BF80BD00BF40020020003C0040C1
:100D700080B500AF144B154A1A60134B4FF4E132A3
:100D80005A60114B00229A600F4B0022DA600E4B22
:100D900000221A610C4B0C225A610B4B00229A6103
:100DA000094B0022DA61084B00221A62064B00222E
:100DB0005A62054804F0E7F90346002B01D000F021
:100DC000FFF900BF80BD00BFA40200200038014031
:100DD00080B500AF144B154A1A60134B4FF4E13243
:100DE0005A60114B00229A600F4B0022DA600E4BC2
:100DF00000221A610C4B0C225A610B4B00229A61A3
:100E0000094B0022DA61084B00221A62064B0022CD
:100E10005A62054804F0B7F90346002B01D000F0F0
:100E2000CFF900BF80BD00BF2C0300200048004068
:100E300080B500AF144B4FF0A0421A60124B06224F
:100E40001A71114B0222DA710F4B02225A720E4BA9
:100E500000229A720C4B0022DA720B4B00221A739A
:100E6000094B00225A73084B0022DA73064B00220A
:100E70009A73054802F0A5FB0346002B01D000F051
:100E80009FF900BF80BD00BFB403002080B58AB0C9
:100E900000AF07F1140300221A605A609A60DA600A
:100EA0001A61BF4BDB6CBE4A43F01003D364BC4BEA
:100EB000DB6C03F010033B613B69B94BDB6CB84A58
:100EC00043F00403D364B64BDB6C03F00403FB6014
:100ED000FB68B34BDB6CB24A43F00103D364B04B05
:100EE000DB6C03F00103BB60BB68AD4BDB6CAC4A51
:100EF00043F00203D364AA4BDB6C03F002037B6074
:100F00007B68A74BDB6CA64A43F00803D364A44B71
:100F1000DB6C03F008033B603B6800224FF48A71EE
:100F2000A04801F0C1FC002248F204114FF09040AB
:100F300001F0BAFC00224FF214019B4801F0B4FC0E
:100F4000002241F28101994801F0AEFC01224FF4E8
:100F50000051964801F0A8FC00224FF4107194480B
:100F600001F0A2FC012220218F4801F09DFC01220A
:100F700001218C4801F098FC40F215137B6101239C
:100F8000BB610023FB6100233B6207F11403194698
:100F9000844801F0EBF96A237B614FF48813BB614D
:100FA0000023FB6107F1140319467E4801F0DEF9C6
:100FB0004FF400537B614FF40413BB610023FB61CA
:100FC00007F1140319467A4801F0D0F93F237B61F9
:100FD0000B23BB610023FB6107F11403194674481E
:100FE00001F0C4F903237B610223BB610023FB6191
:100FF00003233B6208237B6207F1140319464FF079
:10100000904001F0B3F948F204137B610123BB6106
:101010000023FB6100233B6207F1140319464FF0E4
:10102000904001F0A3F908237B610023BB610023FA
:10103000FB6107F1140319464FF0904001F096F957
:1010400010237B610B23BB610023FB6107F11403B9
:1010500019464FF0904001F089F9E0237B610223AB
:10106000BB610023FB6103233B6205237B6207F125
:10107000140319464FF0904001F078F901237B6189
:101080004FF48813BB610023FB6107F11403194679
:10109000454801F06BF902237B610B23BB61002300
:1010A000FB6107F1140319463F4801F05FF94FF265
:1010B00034037B610123BB610023FB6100233B629E
:1010C00007F114031946384801F050F94CF604436F
:1010D0007B614FF48813BB610023FB6107F11403AC
:1010E0001946324801F042F943F281037B61012342
:1010F000BB610023FB6100233B6207F11403194627
:101100002A4801F033F94FF410737B610123BB616E
:101110000023FB6100233B6207F1140319462448B6
:1011200001F024F94FF4C0737B614FF48813BB6165
:101130000023FB6107F1140319461D4801F016F95D
:1011400002237B610223BB610023FB6103233B621B
:1011500005237B6207F114031946144801F006F9D0
:1011600078237B610223BB610023FB6103233B6285
:1011700007237B6207F1140319460C4801F0F6F8C7
:1011800000220021172000F0AEFF172000F0C7FF5B
:1011900000220021282000F0A6FF28200AE000BF3E
:1011A000001002400010004800040048000C0048F5
:1011B0000008004800F0B3FF00BF2837BD4680BDDF
:1011C00080B400AF72B600BF00BFFDE780B483B04B
:1011D00000AF0F4B1B6E0E4A43F0010313660C4B1E
:1011E0001B6E03F001037B607B68094B9B6D084A13
:1011F00043F080539365064B9B6D03F080533B6037
:101200003B6800BF0C37BD465DF8047B704700BFEC
:101210000010024080B5ACB000AF786007F19C03CD
:1012200000221A605A609A60DA601A6107F11403AA
:1012300088220021184605F033F8254B1B68002B47
:1012400042D14FF480337B610023C7F8943007F11B
:101250001403184603F028FA0346002B01D0FFF7C9
:10126000AFFF1C4B1B6E1B4A43F080731366194B78
:101270001B6E03F080733B613B69164BDB6C154AB8
:1012800043F01003D364134BDB6C03F01003FB60DB
:10129000FB684FF42073C7F89C300223C7F8A030D6
:1012A0000023C7F8A4300023C7F8A8300623C7F8E6
:1012B000AC3007F19C031946074801F057F8044B7E
:1012C0001B680133024A136000BFB037BD4680BDC2
:1012D00000090020001002400010004880B5AEB0A8
:1012E00000AF786007F1A40300221A605A609A6088
:1012F000DA601A6107F11C0388220021184604F005
:10130000CFFF7B681B68424A93423CD14023FB617C
:101310000023FB6607F11C03184603F0C5F90346DA
:10132000002B01D0FFF74CFF3A4BDB6C394A43F0FE
:101330000203D364374BDB6C03F00203BB61BB6970
:101340004FF44073C7F8A4301223C7F8A830002325
:10135000C7F8AC300323C7F8B0300423C7F8B43063
:1013600007F1A40319462C4801F000F8294B9B6DA6
:10137000284A43F400139365264B9B6D03F4001336
:101380007B617B6940E07B681B68244A93423BD1C8
:101390008023FB6100233B6707F11C03184603F021
:1013A00083F90346002B01D0FFF70AFF194BDB6CD2
:1013B000184A43F00203D364164BDB6C03F00203BC
:1013C0003B613B694FF44063C7F8A4301223C7F870
:1013D000A8300123C7F8AC300323C7F8B03004238A
:1013E000C7F8B43007F1A40319460B4800F0BEFF5C
:1013F000084B9B6D074A43F480039365054B9B6D37
:1014000003F48003FB60FB6800BFB837BD4680BDB6
:101410000054004000100240000400480058004002
:1014200080B582B000AF78607B681B68164A934233
:1014300010D1164B9B6D154A23F4001393654FF49E
:101440008071134801F03CF94FF40071104801F02D
:1014500037F914E07B681B680E4A93420FD10B4B9F
:101460009B6D0A4A23F4800393654FF4806108481A
:1014700001F026F94FF40061054801F021F900BFA1
:101480000837BD4680BD00BF005400400010024038
:10149000000400480058004080B58AB000AF786072
:1014A00007F1140300221A605A609A60DA601A6128
:1014B0007B681B68174A934228D1174B1B6D164A4D
:1014C00043F480731365144B1B6D03F480733B610D
:1014D0003B69114BDB6C104A43F01003D3640E4B95
:1014E000DB6C03F01003FB60FB684FF47C437B6113
:1014F0000223BB610023FB6103233B620A237B625F
:1015000007F114031946054800F030FF00BF2837E3
:10151000BD4680BD001000A0001002400010004831
:1015200080B58AB000AF786007F1140300221A601A
:101530005A609A60DA601A617B681B68174A9342A6
:1015400028D1174B9B6D164A43F400439365144B07
:101550009B6D03F400433B613B69114BDB6C104A0C
:1015600043F00403D3640E4BDB6C03F00403FB6015
:10157000FB684FF4E0537B610223BB610023FB61F6
:1015800003233B6206237B6207F1140319460548D7
:1015900000F0ECFE00BF2837BD4680BD003C004097
:1015A000001002400008004880B5AEB000AF78607F
:1015B00007F1A40300221A605A609A60DA601A6187
:1015C00007F11C0388220021184604F069FE7B689D
:1015D0001B68424A93423BD10123FB6100237B6598
:1015E00007F11C03184603F05FF80346002B01D0F7
:1015F000FFF7E6FD3A4B1B6E394A43F4804313660E
:10160000374B1B6E03F48043BB61BB69344BDB6C0F
:10161000334A43F00203D364314BDB6C03F0020323
:101620007B617B69C023C7F8A4300223C7F8A830C8
:101630000023C7F8AC300323C7F8B0300723C7F83E
:10164000B43007F1A4031946264800F08FFE40E0AD
:101650007B681B68244A93423BD10423FB6100232F
:10166000FB6507F11C03184603F01EF80346002B28
:1016700001D0FFF7A5FD1A4B9B6D194A43F4802357
:101680009365174B9B6D03F480233B613B69144BBF
:10169000DB6C134A43F00803D364114BDB6C03F09B
:1016A0000803FB60FB684FF44073C7F8A4300223C3
:1016B000C7F8A8300023C7F8AC300323C7F8B03010
:1016C0000723C7F8B43007F1A4031946074800F010
:1016D0004DFE00BFB837BD4680BD00BF0038014099
:1016E000001002400004004800480040000C004880
:1016F00080B5ACB000AF786007F19C0300221A609F
:101700005A609A60DA601A6107F114038822002196
:10171000184604F0C5FD7B681B68B3F1A04F6BD180
:101720004FF400537B614FF08063C7F88030012392
:10173000BB610123FB6118233B6207237B62022309
:10174000BB620223FB624FF480133B6307F1140377
:10175000184602F0A9FF0346002B01D0FFF730FD29
:10176000274BDB6C264A43F00103D364244BDB6C2C
:1017700003F001033B613B694FF4E053C7F89C3031
:101780000223C7F8A0300023C7F8A4300323C7F80A
:10179000A8300A23C7F8AC3007F19C0319464FF074
:1017A000904000F0E3FD164BDB6C154A43F4805388
:1017B000D364134BDB6C03F48053FB60FB68104B6A
:1017C0009B6D03F08053002B14D10D4B9B6D0C4A85
:1017D00043F0805393650A4B9B6D03F08053BB60CD
:1017E000BB6802F095F8064B9B6D054A23F08053C9
:1017F000936501E002F08CF800BFB037BD4680BDB4
:101800000010024080B400AF00BFFDE780B400AF1D
:1018100000BFFDE780B400AF00BFFDE780B400AFBC
:1018200000BFFDE780B400AF00BFFDE780B400AFAC
:1018300000BFBD465DF8047B704780B400AF00BFB9
:10184000BD465DF8047B704780B400AF00BFBD4665
:101850005DF8047B704780B500AF00F025FB00BF4A
:1018600080BD80B500AF202001F036F8402001F0A7
:1018700033F8802001F030F84FF4807001F02CF83C
:1018800000BF80BD80B500AF4FF4806001F024F848
:101890004FF4006001F020F84FF4005001F01CF804
:1018A0004FF4804001F018F84FF4004001F014F8B4
:1018B00000BF80BD80B586B000AF7860144A154B7C
:1018C000D31A7B617B693B61134B1B68002B02D1F0
:1018D000114B124A1A60104B1A687B6813443A691C
:1018E0009A4207D204F0E4FC03460C221A604FF03F
:1018F000FF3309E0084B1B68FB60074B1A687B68E5
:101900001344054A1360FB6818461837BD4680BD6E
:10191000008001200004000004090020D00A0020FB
:1019200080B400AF064BD3F88830054A43F4700307
:10193000C2F8883000BFBD465DF8047B704700BF29
:1019400000ED00E0DFF834D0FFF7EAFF0C480D4966
:101950000D4A002302E0D458C4500433C4188C420A
:10196000F9D30A4A0A4C002301E013600432A24270
:10197000FBD304F0A3FCFEF7F5FFFEE70080012097
:101980000000002000010020D06C000800010020B1
:10199000D00A0020FEE7000080B58AB000AF786072
:1019A000274BDB6C264A43F00203D364244BDB6CE9
:1019B00003F002033B613B694FF440637B611223F8
:1019C000BB610123FB6103233B6204237B6207F1BC
:1019D000140319461B4800F0C9FC07F1140319460B
:1019E000184800F0C3FC164B9B6D154A43F4800366
:1019F0009365134B9B6D03F48003FB60FB68104BF6
:101A00009B6B0F4A43F4800393630D4B9B6B0C4A13
:101A100023F48003936300220F21212000F063FB55
:101A2000212000F07CFB00220F21222000F05BFB34
:101A3000222000F074FB00BF2837BD4680BD00BFE8
:101A4000001002400004004880B582B000AF78600A
:101A50007B68124A1A607B68114A5A607B680022D0
:101A60009A607B680122DA607B6800221A617B68D9
:101A700000225A617B680022DA617B6800221A62C8
:101A80007868FFF789FF786800F049FF00217868DF
:101A900001F000FD00BF0837BD4680BD0058004082
:101AA0008126700080B58AB004AFF8600846114600
:101AB0001A460346FB720B463B811346FB8000230C
:101AC000FB75FB7A99B2F8883A894FF47A730293DE
:101AD000BB8C01933B6A00930346F86801F0FEF863
:101AE0000346FB75FB7D002B04D0FB7A1946F86892
:101AF00000F032F8FB7D18461837BD4680BD80B532
:101B00008AB004AFF860084611461A460346FB72D5
:101B10000B463B811346FB800023FB75FB7A99B291
:101B2000F8883A894FF47A730293BB8C01933B6A2D
:101B300000930346F86800F0BDFF0346FB75FB7D8C
:101B4000002B04D0FB7A1946F86800F005F8FB7DFD
:101B500018461837BD4680BD80B582B000AF7860AA
:101B60000B46FB70786800F075FF7868FFF76CFF34
:101B700000BF0837BD4680BD80B500AF0248FFF703
:101B800063FF00BF80BD00BF0809002080B584B09E
:101B900002AF0346FB710B46BB7113467B71BB79E9
:101BA0009AB2F979012301937B1D00930123034825
:101BB000FFF7A5FF00BF0837BD4680BD080900201C
:101BC00080B586B002AF03460A46FB711346BB716F
:101BD0000023FB73BB799AB2F9790123019307F1D2
:101BE0000F03009301230448FFF75CFFFB7B1846BB
:101BF0001037BD4680BD00BF0809002080B584B005
:101C000002AF3A601A460346FB710B46BB7113469E
:101C1000BB80BB799AB2F979BB8801933B6800938A
:101C200001230448FFF73EFF034618460837BD4628
:101C300080BD00BF0809002080B582B000AF01233D
:101C4000FB71094B094A1A60FFF796FF064B1B68A8
:101C50001B680021BE2098470023FB71FB791846C2
:101C60000837BD4680BD00BF5C09002098000020F9
:101C700080B500AF044B1B68DB68BE209847F0EED0
:101C8000407AB0EE670A80BD5C09002080B584B060
:101C900000AF03463960FB80FB88DBB22021184689
:101CA000FFF78EFF0346FB73FB7B23F00403FB73FC
:101CB000FB7B43F00403FB73FB7B23F00303FB7309
:101CC000FB7B43F00103FB73FB7B63F07F03FB7340
:101CD000FB88DBB2FA7B20211846FFF757FF00BFD5
:101CE0001037BD4680BD80B588B000AF0346FB808D
:101CF000FB88D8B207F108020223B221FFF77EFF6A
:101D0000FB88DBB235211846FFF75AFF0346FB7705
:101D1000FB7F1BB21B021BB203F440731AB23B7A67
:101D20001BB21343BB83FB7F1BB29B011BB203F4AB
:101D300040731AB27B7A1BB213437B83B7F91C3012
:101D4000DB103B83B7F91A30DB10FB82FB88D8B27B
:101D500007F108020423BC21FFF750FF7B7A1BB276
:101D60001B021AB23B7A1BB21343BB82FB7A1BB233
:101D70001B021AB2BB7A1BB213437B82FB88D8B218
:101D800007F108020223AA21FFF738FF7B7A1BB272
:101D90001B021AB23B7A1BB213433B82B7F91020E5
:101DA000B7F91430D31A07EE903AB8EEE77AB7F9DC
:101DB0001620B7F91830D31A07EE903AF8EEE77A02
:101DC00067EE276AB7F91220B7F91430D31A07EE75
:101DD000903AF8EEE77A86EEA77AB7F9183007EE70
:101DE000903AF8EEE77A77EE277AC7ED037AFB6848
:101DF00007EE903AB0EE670A2037BD4680BD80B549
:101E000082B000AF0023FB71032000F061F90020D5
:101E100000F00EF80346002B02D00123FB7101E015
:101E2000FFF7D4F9FB7918460837BD4680BD00009E
:101E300080B584B000AF78600023FB73174B1B782C
:101E4000002B23D0164B1A68144B1B7819464FF4FD
:101E50007A73B3FBF1F3B2FBF3F3184600F06DF9BC
:101E60000346002B0FD17B680F2B09D8002279681D
:101E70004FF0FF3000F037F90A4A7B68136007E043
:101E80000123FB7304E00123FB7301E00123FB73D7
:101E9000FB7B18461037BD4680BD00BFAC0000205C
:101EA00094000020A800002080B400AF064B1B78EF
:101EB0001A46064B1B681344044A136000BFBD4614
:101EC0005DF8047B704700BFAC0000206009002073
:101ED00080B400AF034B1B681846BD465DF8047B19
:101EE000704700BF6009002080B584B000AF786003
:101EF000FFF7EEFFB8607B68FB60FB68B3F1FF3F64
:101F000005D00A4B1B781A46FB681344FB6000BFE0
:101F1000FFF7DEFF0246BB68D31AFA689A42F7D889
:101F200000BF00BF1037BD4680BD00BFAC00002021
:101F300080B485B000AF78607B6803F00703FB6076
:101F40000C4BDB68BB60BA684FF6FF031340BB6005
:101F5000FB681A02BB68134343F0BF6343F40033CA
:101F6000BB60044ABB68D36000BF1437BD465DF850
:101F7000047B704700ED00E080B400AF044BDB68E9
:101F80001B0A03F007031846BD465DF8047B704743
:101F900000ED00E080B483B000AF0346FB7197F919
:101FA0000730002B0BDBFB7903F01F02074997F981
:101FB00007305B09012000FA02F241F8232000BF3C
:101FC0000C37BD465DF8047B704700BF00E100E0C0
:101FD00080B483B000AF03463960FB7197F90730D6
:101FE000002B0ADB3B68DAB20C4997F90730120183
:101FF000D2B20B4483F800230AE03B68DAB2084906
:10200000FB7903F00F03043B1201D2B20B441A76A2
:1020100000BF0C37BD465DF8047B704700E100E06F
:1020200000ED00E080B489B000AFF860B9607A607C
:10203000FB6803F00703FB61FB69C3F10703042B93
:1020400028BF0423BB61FB690433062B02D9FB695B
:10205000033B00E000237B614FF0FF32BB6902FAD3
:1020600003F3DA43BB681A407B699A404FF0FF31B3
:102070007B6901FA03F3D9437B680B40134318468D
:102080002437BD465DF8047B7047000080B582B000
:1020900000AF78607B68013BB3F1807F01D30123FF
:1020A0000FE00A4A7B68013B53600F214FF0FF307D
:1020B000FFF78EFF054B00229A60044B07221A603F
:1020C000002318460837BD4680BD00BF10E000E081
:1020D00080B582B000AF78607868FFF729FF00BF55
:1020E0000837BD4680BD80B586B000AF0346B960F5
:1020F0007A60FB7300237B61FFF73EFF78617A68AB
:10210000B9687869FFF78EFF024697F90F301146DC
:102110001846FFF75DFF00BF1837BD4680BD80B58C
:1021200082B000AF0346FB7197F907301846FFF7FE
:1021300031FF00BF0837BD4680BD80B582B000AF1B
:1021400078607868FFF7A2FF034618460837BD4657
:1021500080BD000080B582B000AF78607B68002B46
:1021600001D10123ACE07B681B68184600F0B2F88F
:102170000346554A52F82330002B01D001239FE03B
:102180007868FFF747F8514B1B6801334F4A1360DB
:102190004E4B1B68012B25D14D4B1B684C4A23F03D
:1021A000804313604A4B1A687B689B684849134315
:1021B0000B60474B1B68464A23F47F0313607B6820
:1021C0001B79012B08D1424B1A687B68DB68013B05
:1021D0001B043F4913430B603D4B1B683C4A43F0D3
:1021E000004313607B681B681A687B681B6822F4D5
:1021F00071421A607B681B6819687B681A697B6882
:102200005B691A437B689B691A437B681B680A43B6
:102210001A607B681B681A687B681B6822F00F02D3
:102220001A607B681B6819687B68DA697B681B6ABF
:102230001A437B681B680A431A607B681B689A68AC
:102240007B681B6822F45F029A607B681B68996850
:102250007B685A6A7B689B6A013B1B041A437B6854
:102260001B680A439A607B681B685A687B681B6816
:1022700002F007025A607B681B6859687B68DB6A5A
:102280001A027B681B6BDB001A437B681B680A43DE
:102290005A607B681B681A687B681B6842F0800282
:1022A0001A607B68012283F834207B681B6818461B
:1022B00000F010F8024604497B6841F82230002300
:1022C00018460837BD4680BD680900206409002013
:1022D0000060014080B485B000AF78607B681C4A24
:1022E000934202D10023FB602BE07B68194A9342A2
:1022F00002D10123FB6024E07B68174A934202D19C
:102300000223FB601DE07B68144A934202D1042340
:10231000FB6016E07B68124A934202D10523FB6002
:102320000FE07B680F4A934202D10623FB6008E06E
:102330007B680D4A934202D10723FB6001E003232F
:10234000FB60FB6818461437BD465DF8047B704798
:102350000060014020600140406001408060014019
:10236000A0600140C0600140E060014080B487B0DF
:1023700000AF7860396000237B617FE13B681A68B9
:1023800001217B6901FA03F31340FB60FB68002B1A
:1023900000F071813B685B6803F00303012B05D0FB
:1023A0003B685B6803F00303022B30D17B689B68BA
:1023B0003B617B695B00032202FA03F3DB433A696A
:1023C00013403B613B68DA687B695B0002FA03F308
:1023D0003A6913433B617B683A699A607B685B6842
:1023E0003B6101227B6902FA03F3DB433A69134044
:1023F0003B613B685B681B0903F001027B6902FAE1
:1024000003F33A6913433B617B683A695A603B685E
:102410005B6803F00303032B18D17B68DB6A3B6125
:1024200001227B6902FA03F3DB433A6913403B6103
:102430003B685B68DB0803F001027B6902FA03F387
:102440003A6913433B617B683A69DA623B685B68CF
:1024500003F00303032B17D07B68DB683B617B69C8
:102460005B00032202FA03F3DB433A6913403B614A
:102470003B689A687B695B0002FA03F33A6913438D
:102480003B617B683A69DA603B685B6803F0030391
:10249000022B23D17B69DA087B68083253F822309B
:1024A0003B617B6903F007039B000F2202FA03F3F1
:1024B000DB433A6913403B613B681A697B6903F06F
:1024C00007039B0002FA03F33A6913433B617B69FC
:1024D000DA087B680832396943F822107B681B6888
:1024E0003B617B695B00032202FA03F3DB433A6939
:1024F00013403B613B685B6803F003027B695B0050
:1025000002FA03F33A6913433B617B683A691A6044
:102510003B685B6803F44033002B00F0AC805F4BFA
:102520001B6E5E4A43F0010313665C4B1B6E03F0A7
:102530000103BB60BB685A4A7B699B08023352F8AF
:1025400023303B617B6903F003039B000F2202FAF7
:1025500003F3DB433A6913403B617B68B3F1904F6F
:1025600025D07B684F4A93421FD07B684E4A9342E6
:1025700019D07B684D4A934213D07B684C4A9342F2
:102580000DD07B684B4A934207D07B684A4A9342FE
:1025900001D106230CE007230AE0052308E0042309
:1025A00006E0032304E0022302E0012300E000230D
:1025B0007A6902F00302920093403A6913433B6147
:1025C00037497B699B0802333A6941F823203B4B2A
:1025D0009B683B61FB68DB433A6913403B613B68A6
:1025E0005B6803F48013002B03D03A69FB68134344
:1025F0003B61324A3B699360304BDB683B61FB686F
:10260000DB433A6913403B613B685B6803F40013AA
:10261000002B03D03A69FB6813433B61274A3B69AF
:10262000D360264B5B683B61FB68DB433A69134030
:102630003B613B685B6803F40033002B03D03A69CD
:10264000FB6813433B611D4A3B6953601B4B1B688E
:102650003B61FB68DB433A6913403B613B685B6865
:1026600003F48033002B03D03A69FB6813433B61CA
:10267000124A3B6913607B6901337B613B681A68CE
:102680007B6922FA03F3002B7FF478AE00BF00BF12
:102690001C37BD465DF8047B704700BF0010024048
:1026A000000001400004004800080048000C0048F9
:1026B00000100048001400480018004800040140C1
:1026C00080B487B000AF7860396000237B61CDE0D3
:1026D00001227B6902FA03F33A6813403B613B69CC
:1026E000002B00F0C080684A7B699B08023352F8D7
:1026F0002330FB607B6903F003039B000F2202FA87
:1027000003F3FA681340FB607B68B3F1904F25D068
:102710007B685E4A93421FD07B685D4A934219D022
:102720007B685C4A934213D07B685B4A93420DD02E
:102730007B685A4A934207D07B68594A934201D139
:1027400006230CE007230AE0052308E0042306E043
:10275000032304E0022302E0012300E000237A695E
:1027600002F0030292009340FA689A4232D14D4B34
:102770001A683B69DB434B4913400B60494B5A686D
:102780003B69DB43474913404B60464BDA683B6982
:10279000DB4344491340CB60424B9A683B69DB43BF
:1027A000404913408B607B6903F003039B000F22B9
:1027B00002FA03F3FB60344A7B699B08023352F848
:1027C0002310FB68DA4330487B699B080A400233D8
:1027D00040F823207B681A687B695B00032101FABB
:1027E00003F31A437B681A607B69DA087B68083256
:1027F00053F822107B6903F007039B000F2202FAB3
:1028000003F3DB437A69D20819407B68083243F846
:1028100022107B689A687B695B00032101FA03F34D
:10282000DB431A407B689A607B685A6801217B69A8
:1028300001FA03F3DB431A407B685A607B68DA686D
:102840007B695B00032101FA03F3DB431A407B68D9
:10285000DA607B68DA6A01217B6901FA03F3DB4302
:102860001A407B68DA627B6901337B613A687B6975
:1028700022FA03F3002B7FF42BAF00BF00BF1C37FD
:10288000BD465DF8047B704700000140000400482D
:1028900000080048000C00480010004800140048E0
:1028A000001800480004014080B483B000AF786095
:1028B0000B467B8013467B707B78002B03D07A8895
:1028C0007B689A6102E07A887B689A6200BF0C3765
:1028D000BD465DF8047B704780B582B000AF03460B
:1028E000FB80084B5A69FB881340002B06D0054A31
:1028F000FB885361FB88184600F006F800BF0837D4
:10290000BD4680BD0004014080B483B000AF0346E3
:10291000FB8000BF0C37BD465DF8047B704780B577
:1029200082B000AF78607B68002B01D101238DE07D
:102930007B6893F84130DBB2002B06D17B68002224
:1029400083F840207868FEF7C9FC7B68242283F86E
:1029500041207B681B681A687B681B6822F00102B3
:102960001A607B685A687B681B6822F070621A6183
:102970007B681B689A687B681B6822F400429A6037
:102980007B68DB68012B07D17B689A687B681B68D2
:1029900042F400429A6006E07B689A687B681B6894
:1029A00042F404429A607B68DB68022B08D17B68A2
:1029B0001B685A687B681B6842F400625A6007E033
:1029C0007B681B685A687B681B6822F400625A6047
:1029D0007B681B685B687A68126843F0007343F495
:1029E000004353607B681B68DA687B681B6822F4CD
:1029F0000042DA607B681A697B685B6942EA03011E
:102A00007B689B691A027B681B680A43DA607B68F3
:102A1000D9697B681A6A7B681B680A431A607B68FD
:102A20001B681A687B681B6842F001021A607B68A9
:102A300000225A647B68202283F841207B680022B0
:102A40001A637B68002283F8422000231846083767
:102A5000BD4680BD80B582B000AF78607B68002B3A
:102A600001D1012321E07B68242283F841207B6887
:102A70001B681A687B681B6822F001021A6078687C
:102A8000FEF7CEFC7B6800225A647B68002283F844
:102A900041207B6800221A637B68002283F8422071
:102AA0007B68002283F84020002318460837BD4683
:102AB00080BD000080B588B002AFF86008461146BE
:102AC0001A4603467B810B463B811346FB80FB681D
:102AD00093F84130DBB2202B40F0F9803B6A002BA9
:102AE00002D0BB8C002B05D1FB684FF400725A64F6
:102AF0000123EDE0FB6893F84030012B01D1022364
:102B0000E6E0FB68012283F84020FFF7E1F97861F5
:102B10007B690093192301224FF40041F86800F00B
:102B2000C3FA0346002B01D00123D1E0FB68212228
:102B300083F84120FB68402283F84220FB68002292
:102B40005A64FB683A6A5A62FB68BA8C5A85FB6819
:102B500000225A63F8883A8979897B690193BB6AB4
:102B600000930346F86800F0D3F90346002B05D024
:102B7000FB68002283F840200123A9E0FB685B8DFD
:102B80009BB2FF2B0ED9FB68FF221A85FB681B8DB9
:102B9000DAB27989002300934FF08073F86800F06F
:102BA00047FC0FE0FB685B8D9AB2FB681A85FB68F7
:102BB0001B8DDAB27989002300934FF00073F86817
:102BC00000F036FC7A69B96AF86800F0C6FA034684
:102BD000002B01D001237BE0FB685B6A1A78FB685D
:102BE0001B689A62FB685B6A5A1CFB685A62FB6846
:102BF0005B8D9BB2013B9AB2FB685A85FB681B8DCB
:102C0000013B9AB2FB681A85FB685B8D9BB2002B77
:102C100034D0FB681B8D002B30D17B690093BB6ADD
:102C200000228021F86800F03FFA0346002B01D013
:102C300001234DE0FB685B8D9BB2FF2B0ED9FB6837
:102C4000FF221A85FB681B8DDAB279890023009375
:102C50004FF08073F86800F0EBFB0FE0FB685B8DD2
:102C60009AB2FB681A85FB681B8DDAB2798900235A
:102C700000934FF00073F86800F0DAFBFB685B8D9F
:102C80009BB2002B9ED17A69B96AF86800F0ACFA61
:102C90000346002B01D001231AE0FB681B682022A9
:102CA000DA61FB681B685968FB681A680A4B0B40BD
:102CB0005360FB68202283F84120FB68002283F8E0
:102CC0004220FB68002283F84020002300E002231A
:102CD00018461837BD4680BD00E800FE80B588B0B4
:102CE00002AFF860084611461A4603467B810B4640
:102CF0003B811346FB80FB6893F84130DBB2202B0D
:102D000040F0FD803B6A002B02D0BB8C002B05D12C
:102D1000FB684FF400725A640123F1E0FB6893F8FA
:102D20004030012B01D10223EAE0FB68012283F845
:102D30004020FFF7CDF878617B69009319230122C9
:102D40004FF40041F86800F0AFF90346002B01D0C2
:102D50000123D5E0FB68222283F84120FB68402252
:102D600083F84220FB6800225A64FB683A6A5A6280
:102D7000FB68BA8C5A85FB6800225A63F8883A8946
:102D800079897B690193BB6A00930346F86800F078
:102D900013F90346002B05D0FB68002283F840207E
:102DA0000123ADE0FB685B8D9BB2FF2B0ED9FB6866
:102DB00001221A85FB681B8DDAB27989524B009388
:102DC0004FF08073F86800F033FB0FE0FB685B8D19
:102DD0009AB2FB681A85FB681B8DDAB279894A4B77
:102DE00000934FF00073F86800F022FB7B690093BA
:102DF000BB6A00220421F86800F056F90346002B54
:102E000001D001237CE0FB681B685A6AFB685B6A9F
:102E1000D2B21A70FB685B6A5A1CFB685A62FB6884
:102E20001B8D013B9AB2FB681A85FB685B8D9BB2D8
:102E3000013B9AB2FB685A85FB685B8D9BB2002B05
:102E400034D0FB681B8D002B30D17B690093BB6AAB
:102E500000228021F86800F027F90346002B01D0FA
:102E600001234DE0FB685B8D9BB2FF2B0ED9FB6805
:102E700001221A85FB681B8DDAB279890023009341
:102E80004FF08073F86800F0D3FA0FE0FB685B8DB9
:102E90009AB2FB681A85FB681B8DDAB27989002328
:102EA00000934FF00073F86800F0C2FAFB685B8D86
:102EB0009BB2002B9AD17A69B96AF86800F094F94C
:102EC0000346002B01D001231AE0FB681B68202277
:102ED000DA61FB681B685968FB681A680B4B0B408A
:102EE0005360FB68202283F84120FB68002283F8AE
:102EF0004220FB68002283F84020002300E00223E8
:102F000018461837BD4680BD0024008000E800FE4A
:102F100080B586B002AFF860084611461A460346EF
:102F20007B810B463B811346FB80FB88DAB27989B3
:102F3000204B00934FF08073F86800F079FAFA693B
:102F4000B969F86800F009F90346002B01D00123A4
:102F50002CE0FB88012B05D13B89DAB2FB681B68AA
:102F60009A6215E03B891B0A9BB2DAB2FB681B68C8
:102F70009A62FA69B969F86800F0EFF80346002B25
:102F800001D0012312E03B89DAB2FB681B689A6228
:102F9000FB690093BB6900228021F86800F084F887
:102FA0000346002B01D0012300E000231846103710
:102FB000BD4680BD0020008080B586B002AFF860BD
:102FC000084611461A4603467B810B463B81134651
:102FD000FB80FB88DAB27989204B00930023F868E4
:102FE00000F026FAFA69B969F86800F0B6F8034605
:102FF000002B01D001232CE0FB88012B05D13B895C
:10300000DAB2FB681B689A6215E03B891B0A9BB227
:10301000DAB2FB681B689A62FA69B969F86800F06D
:103020009CF80346002B01D0012312E03B89DAB261
:10303000FB681B689A62FB690093BB690022402110
:10304000F86800F031F80346002B01D0012300E0BE
:10305000002318461037BD4680BD00BF0020008009
:1030600080B483B000AF78607B681B689B6903F015
:103070000203022B03D17B681B6800229A627B68E3
:103080001B689B6903F00103012B07D07B681B6859
:103090009A697B681B6842F001029A6100BF0C3795
:1030A000BD465DF8047B704780B584B000AFF86022
:1030B000B9603B601346FB713BE0BA693968F86858
:1030C00000F0D6F80346002B01D0012341E03B6815
:1030D000B3F1FF3F2DD0FEF7FBFE0246BB69D31ACA
:1030E0003A689A4202D33B68002B22D1FB681B68E6
:1030F0009A69BB681340BA689A420CBF0123002347
:10310000DBB21A46FB799A4213D1FB685B6C43F041
:103110002002FB685A64FB68202283F84120FB6888
:10312000002283F84220FB68002283F8402001231C
:103130000FE0FB681B689A69BB681340BA689A4243
:103140000CBF01230023DBB21A46FB799A42B4D0AC
:10315000002318461037BD4680BD80B584B000AF4F
:10316000F860B9607A6033E07A68B968F86800F0AE
:103170007FF80346002B01D0012331E0BB68B3F197
:10318000FF3F25D0FEF7A4FE02467B68D31ABA683B
:103190009A4202D3BB68002B1AD1FB681B689B695B
:1031A00003F00203022B13D0FB685B6C43F0200298
:1031B000FB685A64FB68202283F84120FB680022E8
:1031C00083F84220FB68002283F84020012307E0B7
:1031D000FB681B689B6903F00203022BC4D1002328
:1031E00018461037BD4680BD80B584B000AFF8608A
:1031F000B9607A602FE07A68B968F86800F038F84A
:103200000346002B01D001232DE0FEF761FE0246AC
:103210007B68D31ABA689A4202D3BB68002B1AD1D2
:10322000FB681B689B6903F02003202B13D0FB680D
:103230005B6C43F02002FB685A64FB68202283F831
:103240004120FB68002283F84220FB68002283F8BB
:103250004020012307E0FB681B689B6903F0200303
:10326000202BC8D1002318461037BD4680BD000072
:1032700080B58AB000AFF860B9607A60002387F843
:103280002730FB681B689B69BB6100233B627B683E
:10329000FB61BB6903F01003002B68D0FB681B685F
:1032A0001022DA6149E0BB68B3F1FF3F45D0FEF779
:1032B0000FFE0246FB69D31ABA689A4202D3BB6872
:1032C000002B3AD1FB681B685B6803F480437B6189
:1032D000FB6893F84230FB74FB681B689B6903F43E
:1032E0000043B3F5004F21D17B69B3F5804F1DD06A
:1032F000FB7C202B1AD0FB681B685A68FB681B6894
:1033000042F480425A60FEF7E3FDF8610EE0FEF7FA
:10331000DFFD0246FB69D31A192B07D93B6A43F03C
:1033200020033B62012387F8273006E0FB681B6817
:103330009B6903F02003202BE9D1FB681B689B6984
:1033400003F02003202B03D097F82730002BAAD0BE
:1033500097F82730002B03D1FB681B682022DA6125
:103360003B6A43F004033B62012387F82730FB6884
:103370001B689B69BB61BB6903F48073002B0BD096
:103380003B6A43F001033B62FB681B684FF48072A9
:10339000DA61012387F82730BB6903F48063002BCF
:1033A0000BD03B6A43F008033B62FB681B684FF499
:1033B0008062DA61012387F82730BB6903F4007368
:1033C000002B0BD03B6A43F002033B62FB681B6897
:1033D0004FF40072DA61012387F8273097F827301D
:1033E000002B1CD0F868FFF73BFEFB681B68596890
:1033F000FB681A680D4B0B405360FB685A6C3B6AC4
:103400001A43FB685A64FB68202283F84120FB685A
:10341000002283F84220FB68002283F8402097F8BE
:10342000273018462837BD4680BD00BF00E800FEA3
:1034300080B487B000AFF8607B600B467B81134699
:103440007B727B89C3F309027B7A1B0403F47F033D
:103450001A437B681A433B6A134323F000437B61A2
:10346000FB681B685A683B6A5B0D03F48061084B7C
:103470000B43DB4302EA0301FB681B687A690A43DA
:103480005A6000BF1C37BD465DF8047B704700BF23
:10349000FF63FF0380B483B000AF786039607B685E
:1034A00093F84130DBB2202B38D17B6893F8403061
:1034B000012B01D1022332E07B68012283F84020F6
:1034C0007B68242283F841207B681B681A687B682C
:1034D0001B6822F001021A607B681B681A687B680F
:1034E0001B6822F480521A607B681B6819687B682D
:1034F0001B683A680A431A607B681B681A687B6815
:103500001B6842F001021A607B68202283F8412088
:103510007B68002283F84020002300E00223184645
:103520000C37BD465DF8047B704780B485B000AFB2
:10353000786039607B6893F84130DBB2202B39D159
:103540007B6893F84030012B01D1022333E07B6884
:10355000012283F840207B68242283F841207B6885
:103560001B681A687B681B6822F001021A607B687E
:103570001B681B68FB60FB6823F47063FB603B689F
:103580001B02FA681343FB607B681B68FA681A60C9
:103590007B681B681A687B681B6842F001021A602E
:1035A0007B68202283F841207B68002283F840203A
:1035B000002300E0022318461437BD465DF8047B63
:1035C000704780B586B002AF78607B68002B01D170
:1035D000012301E17B6893F89534DBB2002B06D11F
:1035E0007B68002283F894247868FEF781F87B6872
:1035F000032283F895247B6800229A717B681B68FC
:10360000184602F097FB7B6818687B681A7C8DF877
:10361000002004330ECB02F060FB0346002B05D0E4
:103620007B68022283F895240123D5E07B681B6820
:103630000021184602F08FFB0346002B05D07B6863
:10364000022283F895240123C6E00023FB734AE09D
:10365000FA7B79681346DB0013449B000B44153357
:1036600001221A70FA7B79681346DB0013449B0031
:103670000B441433FA7B1A70FA7BFB7B98B279689F
:103680001346DB0013449B000B442E3302461A8082
:10369000FA7B79681346DB0013449B000B44183314
:1036A00000221A70FA7B79681346DB0013449B00F2
:1036B0000B441C3300221A60FA7B79681346DB0046
:1036C00013449B000B44203300221A60FA7B796874
:1036D0001346DB0013449B000B44243300221A6082
:1036E000FB7B0133FB737B681B79FA7B9A42AFD378
:1036F0000023FB7344E0FA7B79681346DB00134434
:103700009B000B4403F2552300221A70FA7B796860
:103710001346DB0013449B000B4403F51573FA7B3F
:103720001A70FA7B79681346DB0013449B000B4444
:1037300003F5167300221A70FA7B79681346DB00D2
:1037400013449B000B4403F5177300221A60FA7BA5
:1037500079681346DB0013449B000B4403F5187390
:1037600000221A60FA7B79681346DB0013449B0041
:103770000B4403F5197300221A60FB7B0133FB73C2
:103780007B681B79FA7B9A42B5D37B6818687B68A3
:103790001A7C8DF8002004330ECB02F029FB03467F
:1037A000002B05D07B68022283F89524012313E0C7
:1037B0007B6800225A747B68012283F895247B6819
:1037C0001B7B012B02D1786800F00AF87B681B682C
:1037D000184602F0CEFC002318461037BD4680BDC7
:1037E00080B485B000AF78607B681B68FB607B6845
:1037F0000122C3F8D8247B68002283F8CC24FB681C
:103800009B6943F00062FB689A61FB685B6D43F063
:10381000805343F00303FA685365002318461437B6
:10382000BD465DF8047B704780B400AF054B1B6854
:10383000044A43F48073136000BFBD465DF8047B07
:10384000704700BF0070004080B400AF044B1B689D
:1038500003F4C0631846BD465DF8047B704700BFA3
:103860000070004080B485B000AF78607B68B3F52D
:10387000007F30D1234B1B6803F4C063B3F5007F96
:1038800038D0204B1B6823F4C0631E4A43F40073F6
:1038900013601D4B1B68322202FB03F31B4AA2FB81
:1038A00003239B0C0133FB6002E0FB68013BFB60E0
:1038B000144B5B6903F48063B3F5806F02D1FB683E
:1038C000002BF2D10F4B5B6903F48063B3F5806F7B
:1038D00010D103230FE00B4B1B6803F4C063B3F557
:1038E000806F07D0074B1B6823F4C063054A43F47D
:1038F00080631360002318461437BD465DF8047BCF
:10390000704700BF007000409400002083DE1B431E
:1039100080B400AF054B5B68044A43F48063536096
:1039200000BFBD465DF8047B704700BF00700040DB
:1039300080B586B002AF7860FEF7CAFAF8607B689F
:10394000002B01D1012363E07B6893F83930DBB2AF
:10395000002B0BD17B68002283F838207868FDF7B4
:103960009BFD41F28831786800F058F87B681B684D
:103970001B6823F470617B689B68013B1A027B68BB
:103980001B680A431A607B681B6C0093FB6800226B
:103990002021786800F050F80346FB72FB7A002B78
:1039A00031D17B681B681B6823F07F4323F0100331
:1039B0007A68526811067A68D26811437A68126888
:1039C0000B4313607B681B685A68134B13407A687B
:1039D000126911047A68526911437A689269114335
:1039E0007A6812680B4353607B681B681A687B68AF
:1039F0001B6842F001021A607B680022DA637B6870
:103A0000012283F839207B68002283F83820FB7A72
:103A100018461037BD4680BDFEF8E0FF80B483B085
:103A200000AF786039607B683A681A6400BF0C3771
:103A3000BD465DF8047B704780B584B000AFF86088
:103A4000B9603B601346FB711AE0BB69B3F1FF3FFD
:103A500016D0FEF73DFA02463B68D31ABA699A427D
:103A600002D3BB69002B0BD1FB68042283F83920F9
:103A7000FB68DB6B43F00102FB68DA6301230EE0B5
:103A8000FB681B689A68BB681340002B14BF0123B6
:103A90000023DBB21A46FB799A42D6D1002318469E
:103AA0001037BD4680BD000080B588B000AF78609B
:103AB0007B68002B01D10123CAE3974B9B6803F07D
:103AC0000C03BB61944BDB6803F003037B617B68F1
:103AD0001B6803F01003002B00F0E480BB69002B8F
:103AE00007D0BB690C2B40F08B807B69012B40F029
:103AF0008780894B1B6803F00203002B05D07B688D
:103B00009B69002B01D10123A2E37B681A6A824BD7
:103B10001B6803F00803002B04D07F4B1B6803F0E5
:103B2000F00305E07C4BD3F894301B0903F0F0035D
:103B3000934223D27B681B6A184600F055FD03466A
:103B4000002B01D0012383E3734B1B68724A43F0BF
:103B500008031360704B1B6823F0F0027B681B6A3C
:103B60006D4913430B606C4B5B6823F47F427B68A9
:103B7000DB691B02684913434B6025E0664B1B68F9
:103B8000654A43F008031360634B1B6823F0F0029F
:103B90007B681B6A604913430B605F4B5B6823F4CF
:103BA0007F427B68DB691B025B4913434B60BB6947
:103BB000002B09D17B681B6A184600F015FD0346EF
:103BC000002B01D0012343E300F04AFC0246524B94
:103BD0009B681B0903F00F035049CB5C03F01F03E4
:103BE00022FA03F34E4A13604E4B1B681846FEF749
:103BF0001FF90346FB73FB7B002B52D0FB7B27E3B3
:103C00007B689B69002B32D0434B1B68424A43F0D0
:103C100001031360FEF75CF9386108E0FEF758F91C
:103C200002463B69D31A022B01D9032310E33A4B16
:103C30001B6803F00203002BF0D0374B1B68364A99
:103C400043F008031360344B1B6823F0F0027B68D9
:103C50001B6A314913430B602F4B5B6823F47F428F
:103C60007B68DB691B022C4913434B601AE02A4B2B
:103C70001B68294A23F001031360FEF729F9386114
:103C800008E0FEF725F902463B69D31A022B01D959
:103C90000323DDE2204B1B6803F00203002BF0D16D
:103CA00000E000BF7B681B6803F00103002B74D0A9
:103CB000BB69082B05D0BB690C2B0ED17B69032B8C
:103CC0000BD1154B1B6803F40033002B64D07B68C9
:103CD0005B68002B60D10123BAE27B685B68B3F5B7
:103CE000803F06D10C4B1B680B4A43F480331360B2
:103CF00026E07B685B68B3F5A02F15D1064B1B68E7
:103D0000054A43F480231360034B1B68024A43F4C3
:103D10008033136014E000BF00100240446C0008C0
:103D200094000020A8000020A04B1B689F4A23F4A9
:103D3000803313609D4B1B689C4A23F480231360DF
:103D40007B685B68002B13D0FEF7C2F8386108E08F
:103D5000FEF7BEF802463B69D31A642B01D9032350
:103D600076E2924B1B6803F40033002BF0D014E092
:103D7000FEF7AEF8386108E0FEF7AAF802463B69A4
:103D8000D31A642B01D9032362E2884B1B6803F426
:103D90000033002BF0D100E000BF7B681B6803F00C
:103DA0000203002B60D0BB69042B05D0BB690C2B30
:103DB00019D17B69022B16D17C4B1B6803F48063FD
:103DC000002B05D07B68DB68002B01D101233FE28B
:103DD000764B5B6823F0F8527B681B691B067349BE
:103DE00013434B6040E07B68DB68002B23D06F4BB4
:103DF0001B686E4A43F480731360FEF769F83861FC
:103E000008E0FEF765F802463B69D31A022B01D998
:103E100003231DE2654B1B6803F48063002BF0D085
:103E2000624B5B6823F0F8527B681B691B065F4995
:103E300013434B6018E05D4B1B685C4A23F48073AE
:103E40001360FEF745F8386108E0FEF741F80246D6
:103E50003B69D31A022B01D90323F9E1534B1B68A9
:103E600003F48063002BF0D17B681B6803F0080328
:103E7000002B3CD07B685B69002B1CD04B4BD3F8EC
:103E800094304A4A43F00103C2F89430FEF720F818
:103E9000386108E0FEF71CF802463B69D31A022B92
:103EA00001D90323D4E1414BD3F8943003F002034A
:103EB000002BEFD01BE03D4BD3F894303B4A23F06E
:103EC0000103C2F89430FEF703F8386108E0FDF70B
:103ED000FFFF02463B69D31A022B01D90323B7E146
:103EE000324BD3F8943003F00203002BEFD17B6800
:103EF0001B6803F00403002B00F0A6800023FB776F
:103F00002A4B9B6D03F08053002B0DD1274B9B6DEB
:103F1000264A43F080539365244B9B6D03F08053F6
:103F2000BB60BB680123FB77214B1B6803F48073E4
:103F3000002B18D11E4B1B681D4A43F4807313607D
:103F4000FDF7C6FF386108E0FDF7C2FF02463B6996
:103F5000D31A022B01D903237AE1154B1B6803F412
:103F60008073002BF0D07B689B68012B08D10F4B2E
:103F7000D3F890300D4A43F00103C2F8903029E0A5
:103F80007B689B68052B15D1084BD3F89030074A06
:103F900043F00403C2F89030044BD3F89030034A46
:103FA00043F00103C2F8903014E000BF001002405B
:103FB000007000409C4BD3F890309B4A23F00103E3
:103FC000C2F89030984BD3F89030974A23F004030E
:103FD000C2F890307B689B68002B16D0FDF778FF05
:103FE00038610AE0FDF774FF02463B69D31A41F2DB
:103FF0008832934201D903232AE18B4BD3F89030C6
:1040000003F00203002BEDD015E0FDF761FF3861EE
:104010000AE0FDF75DFF02463B69D31A41F28832A0
:10402000934201D9032313E17F4BD3F8903003F07F
:104030000203002BEDD1FB7F012B05D17A4B9B6D49
:10404000794A23F0805393657B689B6A002B00F0CC
:10405000FE807B689B6A022B40F0D080724BDB684D
:104060007B617B6903F003027B68DB6A9A4230D193
:104070007B6903F070027B681B6B013B1B019A425A
:1040800027D17B6903F4FE427B685B6B1B029A427B
:104090001FD17B6903F400337A68926B072A14BF3F
:1040A00001220022D2B2934213D17B6903F4C002F1
:1040B0007B68DB6B5B08013B5B059A4209D17B693E
:1040C00003F0C0627B681B6C5B08013B5B069A4295
:1040D0006ED0BB690C2B69D0534B1B6803F0806317
:1040E000002B05D1504B1B6803F08053002B01D0EF
:1040F0000123ADE04C4B1B684B4A23F080731360E7
:10410000FDF7E6FE386108E0FDF7E2FE02463B6996
:10411000D31A022B01D903239AE0434B1B6803F007
:104120000073002BF0D1404BDA68404B13407A68A3
:10413000D16A7A68126B013A120111437A68526BA4
:10414000120211437A68D26B5208013A52051143A8
:104150007A68126C5208013A520611437A68926BDF
:10416000120952040A4330491343CB602E4B1B689B
:104170002D4A43F0807313602B4BDB682A4A43F0CF
:104180008073D360FDF7A4FE386108E0FDF7A0FE60
:1041900002463B69D31A022B01D9032358E0224B74
:1041A0001B6803F00073002BF0D050E001234FE0B8
:1041B0001D4B1B6803F00073002B48D11A4B1B6882
:1041C000194A43F080731360174BDB68164A43F0BB
:1041D0008073D360FDF77CFE386108E0FDF778FE60
:1041E00002463B69D31A022B01D9032330E00E4B60
:1041F0001B6803F00073002BF0D028E0BB690C2B88
:1042000023D0094B1B68084A23F080731360FDF725
:104210005FFE38610CE0FDF75BFE02463B69D31A96
:10422000022B05D9032313E0001002408C809DF976
:10423000094B1B6803F00073002BECD1064BDA68C6
:104240000549064B1340CB6001E0012300E0002349
:1042500018462037BD4680BD00100240FCFFEEFE30
:1042600080B584B000AF786039607B68002B01D1E5
:104270000123E7E0754B1B6803F007033A689A4295
:1042800010D9724B1B6823F0070270493B68134337
:104290000B606E4B1B6803F007033A689A4201D02B
:1042A0000123CFE07B681B6803F00203002B10D0D2
:1042B0007B689A68664B9B6803F0F0039A4208D9C2
:1042C000634B9B6823F0F0027B689B686049134353
:1042D0008B607B681B6803F00103002B4CD07B686C
:1042E0005B68032B07D15A4B1B6803F00073002B4C
:1042F00021D10123A6E07B685B68022B07D1544BD8
:104300001B6803F40033002B15D101239AE07B686E
:104310005B68002B07D14E4B1B6803F00203002B98
:1043200009D101238EE04A4B1B6803F48063002B04
:1043300001D1012386E0464B9B6823F003027B6892
:104340005B68434913438B60FDF7C2FDF8600AE0E8
:10435000FDF7BEFD0246FB68D31A41F28832934254
:1043600001D903236EE03A4B9B6803F00C027B6893
:104370005B689B009A42EBD17B681B6803F00203E9
:10438000002B10D07B689A68314B9B6803F0F003D8
:104390009A4208D22E4B9B6823F0F0027B689B6800
:1043A0002B4913438B60294B1B6803F007033A68C2
:1043B0009A4210D2254B1B6823F0070223493B6821
:1043C00013430B60214B1B6803F007033A689A42C2
:1043D00001D0012336E07B681B6803F00403002B47
:1043E00008D01B4B9B6823F4E0627B68DB681849AC
:1043F00013438B607B681B6803F00803002B09D014
:10440000134B9B6823F460527B681B69DB001049E7
:1044100013438B6000F024F802460D4B9B681B0988
:1044200003F00F030B49CB5C03F01F0322FA03F3E5
:10443000094A1360094B1B681846FDF7F9FC03464F
:10444000FB72FB7A18461037BD4680BD0020024043
:1044500000100240446C000894000020A8000020D6
:1044600080B489B000AF0023FB610023BB613E4BE9
:104470009B6803F00C033B613B4BDB6803F00303D9
:10448000FB603B69002B05D03B690C2B21D1FB68FD
:10449000012B1ED1344B1B6803F00803002B07D1FE
:1044A000314BD3F894301B0A03F00F03FB6105E096
:1044B0002D4B1B681B0903F00F03FB612B4AFB69A3
:1044C00052F82330FB613B69002B0DD1FB69BB61C6
:1044D0000AE03B69042B02D1254BBB6104E03B6938
:1044E000082B01D1234BBB613B690C2B34D11E4BF4
:1044F000DB6803F00303BB60BB68022B03D0BB681F
:10450000032B03D005E01A4B7B6105E0194B7B615F
:1045100002E0FB697B6100BF134BDB681B0903F002
:10452000070301337B60104BDB681B0A03F07F033A
:104530007A6903FB02F27B68B2FBF3F37B610A4BFF
:10454000DB685B0E03F0030301335B003B607A69B9
:104550003B68B2FBF3F3BB61BB6918462437BD4629
:104560005DF8047B704700BF001002405C6C0008DF
:104570000024F40000127A0080B400AF034B1B68E3
:104580001846BD465DF8047B704700BF94000020CC
:1045900080B500AFFFF7F0FF0246064B9B681B0A91
:1045A00003F007030449CB5C03F01F0322FA03F373
:1045B000184680BD00100240546C000880B500AF62
:1045C000FFF7DAFF0246064B9B68DB0A03F007039E
:1045D0000449CB5C03F01F0322FA03F3184680BDA5
:1045E00000100240546C000880B586B000AF7860BF
:1045F00000233B612A4B9B6D03F08053002B03D0BB
:10460000FFF722F9786114E0254B9B6D244A43F0B3
:1046100080539365224B9B6D03F08053FB60FB68D6
:10462000FFF712F978611E4B9B6D1D4A23F08053F2
:1046300093657B69B3F5007F0BD17B68802B19D91B
:104640007B68A02B02D902233B6113E001233B616D
:1046500010E07B68802B02D903233B610AE07B6872
:10466000802B02D102233B6104E07B68702B01D1D7
:1046700001233B610B4B1B6823F0070209493B698F
:1046800013430B60074B1B6803F007033A699A4218
:1046900001D0012300E0002318461837BD4680BD35
:1046A000001002400020024080B586B000AF786064
:1046B0000023FB740023BB747B681B6803F4006356
:1046C000002B41D07B685B6EB3F5400F2AD0B3F569
:1046D000400F24D8B3F5000F08D0B3F5000F1ED853
:1046E000002B0AD0B3F5800F10D018E0864BDB68A2
:1046F000854A43F48033D36015E07B68043300219E
:10470000184600F0CBFA0346FB740CE07B682033BC
:104710000021184600F0B6FB0346FB7403E00123BA
:10472000FB7400E000BFFB7C002B0BD1764BD3F871
:10473000883023F440027B685B6E73491343C1F8F1
:10474000883001E0FB7CBB747B681B6803F48053FA
:10475000002B41D07B689B6EB3F1407F2AD0B3F130
:10476000407F24D8B3F1007F08D0B3F1007F1ED87A
:10477000002B0AD0B3F1807F10D018E0624BDB68C9
:10478000614A43F48033D36015E07B680433002131
:10479000184600F083FA0346FB740CE07B68203374
:1047A0000021184600F06EFB0346FB7403E0012372
:1047B000FB7400E000BFFB7C002B0BD1524BD3F805
:1047C000883023F040727B689B6E4F491343C1F8D9
:1047D000883001E0FB7CBB747B681B6803F400330A
:1047E000002B00F0A08000237B74474B9B6D03F0EF
:1047F0008053002B01D1012300E00023002B0DD0BA
:10480000414B9B6D404A43F0805393653E4B9B6DFB
:1048100003F08053BB60BB6801237B743B4B1B6878
:104820003A4A43F480731360FDF752FBF86009E0E5
:10483000FDF74EFB0246FB68D31A022B02D9032375
:10484000FB7405E0314B1B6803F48073002BEFD041
:10485000FB7C002B5CD12C4BD3F8903003F44073DD
:104860007B617B69002B1FD07B68D3F884307A6929
:104870009A4219D0244BD3F8903023F440737B61D3
:10488000214BD3F89030204A43F48033C2F8903063
:104890001D4BD3F890301C4A23F48033C2F890307B
:1048A000194A7B69C2F890307B6903F00103002B41
:1048B00016D0FDF70DFBF8600BE0FDF709FB024693
:1048C000FB68D31A41F28832934202D90323FB7466
:1048D00006E00D4BD3F8903003F00203002BECD030
:1048E000FB7C002B0CD1084BD3F8903023F44072A2
:1048F0007B68D3F8843004491343C1F8903009E051
:10490000FB7CBB7406E000BF00100240007000405A
:10491000FB7CBB747B7C012B05D19E4B9B6D9D4A20
:1049200023F0805393657B681B6803F00103002B21
:104930000AD0984BD3F8883023F003027B689B6B36
:1049400094491343C1F888307B681B6803F0020365
:10495000002B0AD08F4BD3F8883023F00C027B68F1
:10496000DB6B8C491343C1F888307B681B6803F00C
:104970000403002B0AD0874BD3F8883023F0300291
:104980007B681B6C83491343C1F888307B681B68C4
:1049900003F00803002B0AD07E4BD3F8883023F0B5
:1049A000C0027B685B6C7B491343C1F888307B682D
:1049B0001B6803F01003002B0AD0764BD3F8883025
:1049C00023F440727B689B6C72491343C1F88830B2
:1049D0007B681B6803F02003002B0AD06D4BD3F8D3
:1049E000883023F440627B68DB6C6A491343C1F86A
:1049F00088307B681B6803F40073002B0AD0654B7A
:104A0000D3F8883023F440227B68DB6D614913437F
:104A1000C1F888307B681B6803F48063002B0AD0E0
:104A20005C4BD3F8883023F440127B681B6E5949E5
:104A30001343C1F888307B681B6803F04003002BE8
:104A40000AD0544BD3F8883023F440527B681B6D56
:104A500050491343C1F888307B681B6803F080031A
:104A6000002B0AD04B4BD3F8883023F440427B68AC
:104A70005B6D48491343C1F888307B681B6803F4B9
:104A80008073002B0AD0434BD3F8883023F4403294
:104A90007B689B6D3F491343C1F888307B681B6876
:104AA00003F40053002B28D03A4BD3F8883023F07E
:104AB00040627B68DB6E37491343C1F888307B68FE
:104AC000DB6EB3F1006F06D1324BDB68314A43F441
:104AD0008013D36011E07B68DB6EB3F1806F0CD183
:104AE0007B6804330121184600F0D8F80346FB74B4
:104AF000FB7C002B01D0FB7CBB747B681B6803F440
:104B00000023002B28D0234BD3F8883023F04062B9
:104B10007B681B6F1F491343C1F888307B681B6F8C
:104B2000B3F1006F06D11B4BDB681A4A43F48013C4
:104B3000D36011E07B681B6FB3F1806F0CD17B6891
:104B400004330121184600F0A9F80346FB74FB7CEE
:104B5000002B01D0FB7CBB747B681B6803F48023B3
:104B6000002B2BD00B4BD3F8883023F040627B68AE
:104B70005B6F08491343C1F888307B685B6FB3F102
:104B8000006F09D1034BDB68024A43F48013D36002
:104B900014E000BF001002407B685B6FB3F1806FD0
:104BA0000CD17B6804330121184600F077F80346E6
:104BB000FB74FB7C002B01D0FB7CBB747B681B6807
:104BC00003F48043002B2FD02B4BD3F8883023F0F5
:104BD00040527B689B6F28491343C1F888307B683B
:104BE0009B6FB3F1805F0DD17B68043302211846BF
:104BF00000F054F80346FB74FB7C002B14D0FB7CC4
:104C0000BB7411E07B689B6FB3F1005F0CD17B68D4
:104C100020330221184600F035F90346FB74FB7C73
:104C2000002B01D0FB7CBB747B681B6803F4004342
:104C3000002B0AD0104BD3F8883023F080427B68D9
:104C4000DB6F0D491343C1F888307B681B6803F4A0
:104C50008033002B0BD0084BD3F8883023F0004270
:104C60007B68D3F8803004491343C1F88830BB7C9B
:104C700018461837BD4680BD0010024080B400AF12
:104C8000054B1B68044A43F00403136000BFBD4694
:104C90005DF8047B704700BF0010024080B584B00F
:104CA00000AF786039600023FB73754BDB6803F05D
:104CB0000303002B18D0724BDB6803F003027B6800
:104CC0001B689A420DD17B681B68002B09D06C4B86
:104CD000DB681B0903F007035A1C7B685B689A4278
:104CE00047D00123FB7344E07B681B68032B18D07B
:104CF000032B25D8012B02D0022B09D020E0604BDA
:104D00001B6803F00203002B1DD10123FB731AE083
:104D10005B4B1B6803F48063002B16D10123FB73EC
:104D200013E0574B1B6803F40033002B0FD1544B97
:104D30001B6803F48023002B09D10123FB7306E0D9
:104D40000123FB7304E000BF02E000BF00E000BFEE
:104D5000FB7B002B0DD14A4BDB6823F073027B6891
:104D600019687B685B68013B1B010B434449134393
:104D7000CB60FB7B002B7DD1414B1B68404A23F06D
:104D800080631360FDF7A4F8B86009E0FDF7A0F8B0
:104D90000246BB68D31A022B02D90323FB7305E03A
:104DA000374B1B6803F00063002BEFD1FB7B002B1C
:104DB00060D13B68002B11D1314B1B6923F41F33A9
:104DC00023F440737A68926811027A68D2681209F3
:104DD00052040A432A4913430B6127E03B68012B25
:104DE00012D1274B1B6923F4C00323F4FE437A68D6
:104DF000926811027A6812695208013A52050A4310
:104E00001F4913430B6111E01D4B1B6923F0C06365
:104E100023F4FE437A68926811027A685269520854
:104E2000013A52060A43164913430B61144B1B689F
:104E3000134A43F080631360FDF74AF8B86009E055
:104E4000FDF746F80246BB68D31A022B02D90323AA
:104E5000FB7305E00A4B1B6803F00063002BEFD0E7
:104E6000FB7B002B06D1064B1A697B689B690449C2
:104E700013430B61FB7B18461037BD4680BD00BF56
:104E80000010024080B584B000AF78603960002324
:104E9000FB736A4BDB6803F00303002B18D0674BEE
:104EA000DB6803F003027B681B689A420DD17B68C4
:104EB0001B68002B09D0614BDB681B0903F007035B
:104EC0005A1C7B685B689A4247D00123FB7344E01D
:104ED0007B681B68032B18D0032B25D8012B02D02D
:104EE000022B09D020E0554B1B6803F00203002B76
:104EF0001DD10123FB731AE0504B1B6803F4806340
:104F0000002B16D10123FB7313E04C4B1B6803F4F9
:104F10000033002B0FD1494B1B6803F48023002B77
:104F200009D10123FB7306E00123FB7304E000BFFA
:104F300002E000BF00E000BFFB7B002B0DD13F4B28
:104F4000DB6823F073027B6819687B685B68013B50
:104F50001B010B4339491343CB60FB7B002B67D10B
:104F6000364B1B68354A23F080531360FCF7B0FFC3
:104F7000B86009E0FCF7ACFF0246BB68D31A022B0D
:104F800002D90323FB7305E02C4B1B6803F000538D
:104F9000002BEFD1FB7B002B4AD13B68002B11D1BA
:104FA000264B5B6923F41F3323F440737A689268BD
:104FB00011027A68D268120952040A431F49134346
:104FC0004B6111E01D4B5B6923F0C06323F4FE438A
:104FD0007A68926811027A6812695208013A520698
:104FE0000A43164913434B61144B1B68134A43F0A1
:104FF00080531360FCF76CFFB86009E0FCF768FFB2
:105000000246BB68D31A022B02D90323FB7305E0C7
:105010000A4B1B6803F00053002BEFD0FB7B002BE7
:1050200006D1064B5A697B685B69044913434B619F
:10503000FB7B18461037BD4680BD00BF0010024004
:1050400080B584B000AF78607B68002B01D101236C
:1050500095E07B685B6A002B08D17B685B68B3F5E1
:10506000827F09D07B680022DA6105E07B6800223C
:105070001A617B6800225A617B6800229A627B6811
:1050800093F85D30DBB2002B06D17B68002283F8F9
:105090005C207868FCF744FA7B68022283F85D2084
:1050A0007B681B681A687B681B6822F040021A60E4
:1050B0007B68DB68B3F5E06F02D90023FB6002E098
:1050C0004FF48053FB607B68DB68B3F5706F07D0EB
:1050D0007B68DB68B3F5E06F02D07B6800229A62E0
:1050E0007B685B6803F482727B689B6803F404430B
:1050F0001A437B681B6903F002031A437B685B69F0
:1051000003F001031A437B689B6903F400731A439D
:105110007B68DB6903F038031A437B681B6A03F082
:10512000800342EA03017B689B6A03F400527B68B8
:105130001B680A431A607B689B691B0C03F004021E
:105140007B685B6A03F010031A437B685B6B03F0B8
:1051500008031A437B68DB6803F4706342EA0301C7
:10516000FB6803F480527B681B680A435A607B68C3
:1051700000221A667B68012283F85D20002318460E
:105180001037BD4680BD80B582B000AF78607B68C7
:10519000002B01D1012340E07B68DB6F002B06D19F
:1051A0007B68002283F878207868FCF7FDF97B683B
:1051B0002422DA677B681B681A687B681B6822F008
:1051C00001021A607B685B6A002B02D0786800F0ED
:1051D00069FB786800F0AEF80346012B01D101238A
:1051E0001BE07B681B685A687B681B6822F490424E
:1051F0005A607B681B689A687B681B6822F02A02E9
:105200009A607B681B681A687B681B6842F0010221
:105210001A60786800F0E8FB034618460837BD4678
:1052200080BD80B58AB002AFF860B9603B601346BC
:10523000FB80FB68DB6F202B77D1BB68002B02D093
:10524000FB88002B01D1012370E0FB680022C3F82A
:105250008420FB682122DA67FCF73AFE7861FB685C
:10526000FA88A3F85020FB68FA88A3F85220FB685C
:105270009B68B3F5805F08D1FB681B69002B04D1E4
:105280000023FB61BB68BB6103E0BB68FB610023DB
:10529000BB612FE03B6800937B6900228021F868A6
:1052A00000F04AFC0346002B04D0FB682022DA679A
:1052B00003233BE0FB69002B0BD1BB691A88FB6819
:1052C0001B68C2F3080292B21A85BB690233BB6144
:1052D00007E0FB691A78FB681B681A85FB690133D4
:1052E000FB61FB68B3F852309BB2013B9AB2FB689A
:1052F000A3F85220FB68B3F852309BB2002BC9D1FF
:105300003B6800937B6900224021F86800F014FCA0
:105310000346002B04D0FB682022DA67032305E054
:10532000FB682022DA67002300E0022318462037BA
:10533000BD4680BD2DE9B04F8AB000AFF8600023B4
:1053400087F82230FB689A68FB681B691A43FB6880
:105350005B691A43FB68DB6913437B62FB681B686C
:105360001A68A44B1340FA681268796A0B431360F9
:10537000FB681B685B6823F44051FB68DA68FB68D4
:105380001B680A435A60FB689B697B62FB681B6869
:10539000994A934204D0FB681B6A7A6A13437B6282
:1053A000FB681B689B6823F43061FB681B687A6AA2
:1053B0000A439A60FB681B68904A934226D1904B3F
:1053C000D3F8883003F00303032B1BD801A252F853
:1053D00023F000BFE5530008F5530008ED53000823
:1053E000FD530008012387F8233016E1022387F8D4
:1053F000233012E1042387F823300EE1082387F8D5
:1054000023300AE1102387F8233006E1FB681B688C
:105410007C4A934238D17A4BD3F8883003F00C039E
:105420000C2B2DD801A252F823F000BF61540008C4
:105430008154000881540008815400087154000808
:105440008154000881540008815400086954000800
:1054500081540008815400088154000879540008E0
:10546000002387F82330D8E0022387F82330D4E0E4
:10547000042387F82330D0E0082387F82330CCE0DA
:10548000102387F82330C8E0FB681B685E4A93420C
:1054900025D15B4BD3F8883003F03003302B16D086
:1054A000302B18D8202B0AD0202B14D8002B02D058
:1054B000102B08D00FE0002387F82330ADE0022343
:1054C00087F82330A9E0042387F82330A5E00823D8
:1054D00087F82330A1E0102387F823309DE0FB6894
:1054E0001B684A4A934225D1454BD3F8883003F0D4
:1054F000C003C02B16D0C02B18D8802B0AD0802B0D
:1055000014D8002B02D0402B08D00FE0002387F8DE
:10551000233082E0022387F823307EE0042387F8DB
:1055200023307AE0082387F8233076E0102387F8C9
:10553000233072E0FB681B68354A93422AD1304B16
:10554000D3F8883003F44073B3F5407F1AD0B3F535
:10555000407F1BD8B3F5007F0CD0B3F5007F15D882
:10556000002B03D0B3F5807F08D00FE0002387F82D
:10557000233052E0022387F823304EE0042387F8DB
:1055800023304AE0082387F8233046E0102387F8C9
:10559000233042E0FB681B68174A93423AD1184B0C
:1055A000D3F8883003F44063B3F5406F1AD0B3F5F5
:1055B000406F1BD8B3F5006F0CD0B3F5006F15D852
:1055C000002B03D0B3F5806F08D00FE0002387F8DD
:1055D000233022E0022387F823301EE0042387F8DB
:1055E00023301AE0082387F8233016E0102387F8C9
:1055F000233012E0F369FFEF0080004000380140E3
:10560000001002400044004000480040004C0040B0
:1056100000500040102387F82330FB681B689F4A26
:1056200093427AD197F82330082B24D801A252F85C
:1056300023F000BF5956000877560008615600084D
:105640007756000867560008775600087756000816
:10565000775600086F560008FEF79AFFF86110E0D1
:105660008F4BFB610DE0FEF7FBFEF86109E04FF4A4
:105670000043FB6105E00023FB61012387F8223032
:1056800000BFFB69002B00F0FB80FB685A681346E3
:105690005B001344FA699A4205D3FB685B681B03FD
:1056A000FA699A4203D9012387F82230E8E0FB69BE
:1056B00000221C4615464FF000024FF000032B025B
:1056C00043EA14632202F9684968490800208846C1
:1056D000814612EB080A43EB090BFB685B6800226A
:1056E0003B607A60D7E9002350465946FAF7A4FF99
:1056F00002460B461346BB61BB69B3F5407F08D336
:10570000BB69B3F5801F04D2FB681B68BA69DA6015
:10571000B6E0012387F82230B2E0FB68DB69B3F51D
:10572000004F5ED197F82330082B28D801A252F8F9
:1057300023F000BF59570008615700086957000857
:105740007F5700086F5700087F5700087F570008F1
:105750007F57000877570008FEF71AFFF86114E03A
:10576000FEF72CFFF86110E04D4BFB610DE0FEF7FA
:1057700077FEF86109E04FF40043FB6105E0002388
:10578000FB61012387F8223000BFFB69002B77D033
:10579000FB695A00FB685B685B081A44FB685B683E
:1057A000B2FBF3F3BB61BB690F2B16D9BB69B3F531
:1057B000803F12D2BB699BB223F00F03FB82BB690F
:1057C0005B089BB203F007039AB2FB8A1343FB8288
:1057D000FB681B68FA8ADA6052E0012387F82230FE
:1057E0004EE097F82330082B27D801A252F823F077
:1057F000155800081D580008255800083B58000897
:105800002B5800083B5800083B5800083B5800083C
:1058100033580008FEF7BCFEF86114E0FEF7CEFE38
:10582000F86110E01E4BFB610DE0FEF719FEF86118
:1058300009E04FF40043FB6105E00023FB61012315
:1058400087F8223000BFFB69002B19D0FB685B682A
:105850005A08FB691A44FB685B68B2FBF3F3BB614F
:10586000BB690F2B09D9BB69B3F5803F05D2BB6972
:105870009AB2FB681B68DA6002E0012387F82230E5
:10588000FB6800229A66FB680022DA6697F82230ED
:1058900018462837BD46BDE8B08F00BF00800040E5
:1058A0000024F40080B483B000AF78607B685B6A4A
:1058B00003F00803002B0AD07B681B685B6823F4A5
:1058C00000417B685A6B7B681B680A435A607B689F
:1058D0005B6A03F00103002B0AD07B681B685B68DE
:1058E00023F400317B689A6A7B681B680A435A601C
:1058F0007B685B6A03F00203002B0AD07B681B689D
:105900005B6823F480317B68DA6A7B681B680A4332
:105910005A607B685B6A03F00403002B0AD07B6843
:105920001B685B6823F480217B681A6B7B681B68AB
:105930000A435A607B685B6A03F01003002B0AD0AD
:105940007B681B689B6823F480517B689A6B7B683B
:105950001B680A439A607B685B6A03F02003002B94
:105960000AD07B681B689B6823F400517B68DA6B64
:105970007B681B680A439A607B685B6A03F040039C
:10598000002B1AD07B681B685B6823F480117B684E
:105990001A6C7B681B680A435A607B681B6CB3F502
:1059A000801F0AD17B681B685B6823F4C0017B6899
:1059B0005A6C7B681B680A435A607B685B6A03F019
:1059C0008003002B0AD07B681B685B6823F40021EE
:1059D0007B689A6C7B681B680A435A6000BF0C376F
:1059E000BD465DF8047B704780B598B002AF786023
:1059F0007B680022C3F88420FCF76AFA78657B682C
:105A00001B681B6803F00803082B2ED16FF07E4340
:105A100000937B6D00224FF40011786800F08CF841
:105A20000346002B21D07B681B68BB63BB6B53E82C
:105A3000003F7B637B6B23F080033B657B681B68C7
:105A40001A463B6D7B643A64396C7A6C41E80023FA
:105A5000FB63FB6B002BE6D17B682022DA677B6857
:105A6000002283F87820032362E07B681B681B68B0
:105A700003F00403042B49D16FF07E4300937B6D48
:105A800000224FF48001786800F056F80346002B9E
:105A90003CD07B681B687B627B6A53E8003F3B62BB
:105AA0003B6A23F49073FB647B681B681A46FB6CAB
:105AB0003B63FA62F96A3A6B41E80023BB62BB6A56
:105AC000002BE6D17B681B6808333B613B6953E8D8
:105AD000003FFB60FB6823F00103BB647B681B682D
